:020000021000EC
:10FC000045C000004BC0000049C0000047C00000D4
:10FC100045C0000043C0000041C000003FC00000DC
:10FC20003DC000003BC0000039C0000037C00000EC
:10FC300035C0000033C0000031C000002FC00000FC
:10FC40002DC000002BC0000029C0000027C000000C
:10FC500025C0000023C0000021C000001FC000001C
:10FC60001DC000001BC0000019C0000017C000002C
:10FC700015C0000013C0000011C000000FC000003C
:10FC80000DC000000BC0000009C0000011241FBE01
:10FC9000CFEFD0E1DEBFCDBF44D0A9C0B1CFCF926E
:10FCA000DF92EF92FF926B017C013FB7F894E199EC
:10FCB000FECF83E0F601E0925B0080936800E89558
:10FCC000E8E6F0E0808180FDFDCF80E090E0DC019F
:10FCD00021E00A01FC01A0935B0020936800E895F5
:10FCE00011240296A11DB11D811561E09607A105A1
:10FCF000B10579F785E0F601E0925B00809368003A
:10FD0000E895E8E6F0E0808180FDFDCF81E1809319
:10FD10006800E89578943FBFFF90EF90DF90CF9018
:10FD2000089587E081BB81E082BBC12CD12C760194
:10FD300045E555E5C701B601B2DF460157012FEF92
:10FD4000921AA20AB20AC814D904EA04FB0408F001
:10FD50003BC0EBBEF601879196918535954529F517
:10FD6000D701C60107C0ABBFFC01279136912535ED
:10FD70003545D9F40296A11DB11D88159905AA052E
:10FD8000BB0588F327C0EBBEF601879196918A3AAE
:10FD90009A4A59F442E0C40ED11CE11CF11CC8146B
:10FDA000D904EA04FB0478F303C084E082BBFFCFEC
:10FDB0007501640181148CEF980681E0A806B104F6
:10FDC00009F0B6CF82E0F2CF4AEA5AEAC701B6019B
:10FDD00066DFEECF4AEA5AEAC701B60160DFEBBE42
:10FDE000F601879196918A3A9A4AA1F2DECFF89469
:02FDF000FFCF43
:040000031000FC00ED
:00000001FF
